{
  "contractName": "NFTCONTRACT",
  "abi": [
    {
      "inputs": [],
      "stateMutability": "nonpayable",
      "type": "constructor"
    },
    {
      "anonymous": false,
      "inputs": [
        {
          "indexed": true,
          "internalType": "address",
          "name": "account",
          "type": "address"
        },
        {
          "indexed": true,
          "internalType": "address",
          "name": "operator",
          "type": "address"
        },
        {
          "indexed": false,
          "internalType": "bool",
          "name": "approved",
          "type": "bool"
        }
      ],
      "name": "ApprovalForAll",
      "type": "event"
    },
    {
      "anonymous": false,
      "inputs": [
        {
          "indexed": true,
          "internalType": "address",
          "name": "previousOwner",
          "type": "address"
        },
        {
          "indexed": true,
          "internalType": "address",
          "name": "newOwner",
          "type": "address"
        }
      ],
      "name": "OwnershipTransferred",
      "type": "event"
    },
    {
      "anonymous": false,
      "inputs": [
        {
          "indexed": true,
          "internalType": "address",
          "name": "operator",
          "type": "address"
        },
        {
          "indexed": true,
          "internalType": "address",
          "name": "from",
          "type": "address"
        },
        {
          "indexed": true,
          "internalType": "address",
          "name": "to",
          "type": "address"
        },
        {
          "indexed": false,
          "internalType": "uint256[]",
          "name": "ids",
          "type": "uint256[]"
        },
        {
          "indexed": false,
          "internalType": "uint256[]",
          "name": "values",
          "type": "uint256[]"
        }
      ],
      "name": "TransferBatch",
      "type": "event"
    },
    {
      "anonymous": false,
      "inputs": [
        {
          "indexed": true,
          "internalType": "address",
          "name": "operator",
          "type": "address"
        },
        {
          "indexed": true,
          "internalType": "address",
          "name": "from",
          "type": "address"
        },
        {
          "indexed": true,
          "internalType": "address",
          "name": "to",
          "type": "address"
        },
        {
          "indexed": false,
          "internalType": "uint256",
          "name": "id",
          "type": "uint256"
        },
        {
          "indexed": false,
          "internalType": "uint256",
          "name": "value",
          "type": "uint256"
        }
      ],
      "name": "TransferSingle",
      "type": "event"
    },
    {
      "anonymous": false,
      "inputs": [
        {
          "indexed": false,
          "internalType": "string",
          "name": "value",
          "type": "string"
        },
        {
          "indexed": true,
          "internalType": "uint256",
          "name": "id",
          "type": "uint256"
        }
      ],
      "name": "URI",
      "type": "event"
    },
    {
      "inputs": [],
      "name": "ARTWORK",
      "outputs": [
        {
          "internalType": "uint256",
          "name": "",
          "type": "uint256"
        }
      ],
      "stateMutability": "view",
      "type": "function",
      "constant": true
    },
    {
      "inputs": [],
      "name": "PHOTO",
      "outputs": [
        {
          "internalType": "uint256",
          "name": "",
          "type": "uint256"
        }
      ],
      "stateMutability": "view",
      "type": "function",
      "constant": true
    },
    {
      "inputs": [
        {
          "internalType": "address",
          "name": "account",
          "type": "address"
        },
        {
          "internalType": "uint256",
          "name": "id",
          "type": "uint256"
        }
      ],
      "name": "balanceOf",
      "outputs": [
        {
          "internalType": "uint256",
          "name": "",
          "type": "uint256"
        }
      ],
      "stateMutability": "view",
      "type": "function",
      "constant": true
    },
    {
      "inputs": [
        {
          "internalType": "address[]",
          "name": "accounts",
          "type": "address[]"
        },
        {
          "internalType": "uint256[]",
          "name": "ids",
          "type": "uint256[]"
        }
      ],
      "name": "balanceOfBatch",
      "outputs": [
        {
          "internalType": "uint256[]",
          "name": "",
          "type": "uint256[]"
        }
      ],
      "stateMutability": "view",
      "type": "function",
      "constant": true
    },
    {
      "inputs": [
        {
          "internalType": "address",
          "name": "account",
          "type": "address"
        },
        {
          "internalType": "address",
          "name": "operator",
          "type": "address"
        }
      ],
      "name": "isApprovedForAll",
      "outputs": [
        {
          "internalType": "bool",
          "name": "",
          "type": "bool"
        }
      ],
      "stateMutability": "view",
      "type": "function",
      "constant": true
    },
    {
      "inputs": [],
      "name": "owner",
      "outputs": [
        {
          "internalType": "address",
          "name": "",
          "type": "address"
        }
      ],
      "stateMutability": "view",
      "type": "function",
      "constant": true
    },
    {
      "inputs": [],
      "name": "renounceOwnership",
      "outputs": [],
      "stateMutability": "nonpayable",
      "type": "function"
    },
    {
      "inputs": [
        {
          "internalType": "address",
          "name": "from",
          "type": "address"
        },
        {
          "internalType": "address",
          "name": "to",
          "type": "address"
        },
        {
          "internalType": "uint256[]",
          "name": "ids",
          "type": "uint256[]"
        },
        {
          "internalType": "uint256[]",
          "name": "amounts",
          "type": "uint256[]"
        },
        {
          "internalType": "bytes",
          "name": "data",
          "type": "bytes"
        }
      ],
      "name": "safeBatchTransferFrom",
      "outputs": [],
      "stateMutability": "nonpayable",
      "type": "function"
    },
    {
      "inputs": [
        {
          "internalType": "address",
          "name": "from",
          "type": "address"
        },
        {
          "internalType": "address",
          "name": "to",
          "type": "address"
        },
        {
          "internalType": "uint256",
          "name": "id",
          "type": "uint256"
        },
        {
          "internalType": "uint256",
          "name": "amount",
          "type": "uint256"
        },
        {
          "internalType": "bytes",
          "name": "data",
          "type": "bytes"
        }
      ],
      "name": "safeTransferFrom",
      "outputs": [],
      "stateMutability": "nonpayable",
      "type": "function"
    },
    {
      "inputs": [
        {
          "internalType": "address",
          "name": "operator",
          "type": "address"
        },
        {
          "internalType": "bool",
          "name": "approved",
          "type": "bool"
        }
      ],
      "name": "setApprovalForAll",
      "outputs": [],
      "stateMutability": "nonpayable",
      "type": "function"
    },
    {
      "inputs": [
        {
          "internalType": "bytes4",
          "name": "interfaceId",
          "type": "bytes4"
        }
      ],
      "name": "supportsInterface",
      "outputs": [
        {
          "internalType": "bool",
          "name": "",
          "type": "bool"
        }
      ],
      "stateMutability": "view",
      "type": "function",
      "constant": true
    },
    {
      "inputs": [
        {
          "internalType": "address",
          "name": "newOwner",
          "type": "address"
        }
      ],
      "name": "transferOwnership",
      "outputs": [],
      "stateMutability": "nonpayable",
      "type": "function"
    },
    {
      "inputs": [
        {
          "internalType": "uint256",
          "name": "",
          "type": "uint256"
        }
      ],
      "name": "uri",
      "outputs": [
        {
          "internalType": "string",
          "name": "",
          "type": "string"
        }
      ],
      "stateMutability": "view",
      "type": "function",
      "constant": true
    },
    {
      "inputs": [
        {
          "internalType": "address",
          "name": "account",
          "type": "address"
        },
        {
          "internalType": "uint256",
          "name": "id",
          "type": "uint256"
        },
        {
          "internalType": "uint256",
          "name": "amount",
          "type": "uint256"
        }
      ],
      "name": "mint",
      "outputs": [],
      "stateMutability": "nonpayable",
      "type": "function"
    },
    {
      "inputs": [
        {
          "internalType": "address",
          "name": "account",
          "type": "address"
        },
        {
          "internalType": "uint256",
          "name": "id",
          "type": "uint256"
        },
        {
          "internalType": "uint256",
          "name": "amount",
          "type": "uint256"
        }
      ],
      "name": "burn",
      "outputs": [],
      "stateMutability": "nonpayable",
      "type": "function"
    }
  ],
  "bytecode": "0x60806040523480156200001157600080fd5b506040518060600160405280602e815260200162003da3602e91396200003d81620000ae60201b60201c565b506200005e62000052620000ca60201b60201c565b620000d260201b60201c565b620000833360006001604051806020016040528060008152506200019860201b60201c565b620000a83360016002604051806020016040528060008152506200019860201b60201c565b62000ce0565b8060029080519060200190620000c692919062000631565b5050565b600033905090565b6000600360009054906101000a900473ffffffffffffffffffffffffffffffffffffffff16905081600360006101000a81548173ffffffffffffffffffffffffffffffffffffffff021916908373ffffffffffffffffffffffffffffffffffffffff1602179055508173ffffffffffffffffffffffffffffffffffffffff168173ffffffffffffffffffffffffffffffffffffffff167f8be0079c531659141344cd1fd0a4f28419497f9722a3daafe3b4186f6b6457e060405160405180910390a35050565b600073ffffffffffffffffffffffffffffffffffffffff168473ffffffffffffffffffffffffffffffffffffffff1614156200020b576040517f08c379a00000000000000000000000000000000000000000000000000000000081526004016200020290620009cc565b60405180910390fd5b60006200021d620000ca60201b60201c565b9050620002568160008762000238886200035d60201b60201c565b62000249886200035d60201b60201c565b876200042660201b60201c565b8260008086815260200190815260200160002060008773ffffffffffffffffffffffffffffffffffffffff1673ffffffffffffffffffffffffffffffffffffffff1681526020019081526020016000206000828254620002b7919062000a53565b925050819055508473ffffffffffffffffffffffffffffffffffffffff16600073ffffffffffffffffffffffffffffffffffffffff168273ffffffffffffffffffffffffffffffffffffffff167fc3d58168c5ae7397731d063d5bbf3d657854427343f4c083240f7aacaa2d0f62878760405162000337929190620009ee565b60405180910390a462000356816000878787876200042e60201b60201c565b5050505050565b60606000600167ffffffffffffffff811115620003a3577f4e487b7100000000000000000000000000000000000000000000000000000000600052604160045260246000fd5b604051908082528060200260200182016040528015620003d25781602001602082028036833780820191505090505b509050828160008151811062000411577f4e487b7100000000000000000000000000000000000000000000000000000000600052603260045260246000fd5b60200260200101818152505080915050919050565b505050505050565b6200045a8473ffffffffffffffffffffffffffffffffffffffff166200061e60201b62000cd41760201c565b1562000616578373ffffffffffffffffffffffffffffffffffffffff1663f23a6e6187878686866040518663ffffffff1660e01b8152600401620004a395949392919062000900565b602060405180830381600087803b158015620004be57600080fd5b505af1925050508015620004f257506040513d601f19601f82011682018060405250810190620004ef9190620006f8565b60015b6200058a576200050162000c02565b806200050e57506200054d565b806040517f08c379a000000000000000000000000000000000000000000000000000000000815260040162000544919062000964565b60405180910390fd5b6040517f08c379a0000000000000000000000000000000000000000000000000000000008152600401620005819062000988565b60405180910390fd5b63f23a6e6160e01b7bffffffffffffffffffffffffffffffffffffffffffffffffffffffff1916817bffffffffffffffffffffffffffffffffffffffffffffffffffffffff19161462000614576040517f08c379a00000000000000000000000000000000000000000000000000000000081526004016200060b90620009aa565b60405180910390fd5b505b505050505050565b600080823b905060008111915050919050565b8280546200063f9062000b50565b90600052602060002090601f016020900481019282620006635760008555620006af565b82601f106200067e57805160ff1916838001178555620006af565b82800160010185558215620006af579182015b82811115620006ae57825182559160200191906001019062000691565b5b509050620006be9190620006c2565b5090565b5b80821115620006dd576000816000905550600101620006c3565b5090565b600081519050620006f28162000cc6565b92915050565b6000602082840312156200070b57600080fd5b60006200071b84828501620006e1565b91505092915050565b6200072f8162000ab0565b82525050565b6000620007428262000a1b565b6200074e818562000a31565b93506200076081856020860162000b1a565b6200076b8162000be4565b840191505092915050565b6000620007838262000a26565b6200078f818562000a42565b9350620007a181856020860162000b1a565b620007ac8162000be4565b840191505092915050565b6000620007c660348362000a42565b91507f455243313135353a207472616e7366657220746f206e6f6e204552433131353560008301527f526563656976657220696d706c656d656e7465720000000000000000000000006020830152604082019050919050565b60006200082e60288362000a42565b91507f455243313135353a204552433131353552656365697665722072656a6563746560008301527f6420746f6b656e730000000000000000000000000000000000000000000000006020830152604082019050919050565b60006200089660218362000a42565b91507f455243313135353a206d696e7420746f20746865207a65726f2061646472657360008301527f73000000000000000000000000000000000000000000000000000000000000006020830152604082019050919050565b620008fa8162000b10565b82525050565b600060a08201905062000917600083018862000724565b62000926602083018762000724565b620009356040830186620008ef565b620009446060830185620008ef565b818103608083015262000958818462000735565b90509695505050505050565b6000602082019050818103600083015262000980818462000776565b905092915050565b60006020820190508181036000830152620009a381620007b7565b9050919050565b60006020820190508181036000830152620009c5816200081f565b9050919050565b60006020820190508181036000830152620009e78162000887565b9050919050565b600060408201905062000a056000830185620008ef565b62000a146020830184620008ef565b9392505050565b600081519050919050565b600081519050919050565b600082825260208201905092915050565b600082825260208201905092915050565b600062000a608262000b10565b915062000a6d8362000b10565b9250827fffffffffffffffffffffffffffffffffffffffffffffffffffffffffffffffff0382111562000aa55762000aa462000b86565b5b828201905092915050565b600062000abd8262000af0565b9050919050565b60007fffffffff0000000000000000000000000000000000000000000000000000000082169050919050565b600073ffffffffffffffffffffffffffffffffffffffff82169050919050565b6000819050919050565b60005b8381101562000b3a57808201518184015260208101905062000b1d565b8381111562000b4a576000848401525b50505050565b6000600282049050600182168062000b6957607f821691505b6020821081141562000b805762000b7f62000bb5565b5b50919050565b7f4e487b7100000000000000000000000000000000000000000000000000000000600052601160045260246000fd5b7f4e487b7100000000000000000000000000000000000000000000000000000000600052602260045260246000fd5b6000601f19601f8301169050919050565b60008160e01c9050919050565b600060443d101562000c145762000cc3565b60046000803e62000c2760005162000bf5565b6308c379a0811462000c3a575062000cc3565b60405160043d036004823e80513d602482011167ffffffffffffffff8211171562000c685750505062000cc3565b808201805167ffffffffffffffff81111562000c8957505050505062000cc3565b8060208301013d850181111562000ca65750505050505062000cc3565b62000cb18262000be4565b60208401016040528296505050505050505b90565b62000cd18162000ac4565b811462000cdd57600080fd5b50565b6130b38062000cf06000396000f3fe608060405234801561001057600080fd5b50600436106100f45760003560e01c8063715018a611610097578063e985e9c511610066578063e985e9c514610271578063f242432a146102a1578063f2fde38b146102bd578063f5298aca146102d9576100f4565b8063715018a61461020f5780638da5cb5b14610219578063a22cb46514610237578063d016c55414610253576100f4565b8063156e29f6116100d3578063156e29f61461018957806320f708b9146101a55780632eb2c2d6146101c35780634e1273f4146101df576100f4565b8062fdd58e146100f957806301ffc9a7146101295780630e89341c14610159575b600080fd5b610113600480360381019061010e919061200e565b6102f5565b6040516101209190612bcb565b60405180910390f35b610143600480360381019061013e9190612105565b6103be565b60405161015091906129ae565b60405180910390f35b610173600480360381019061016e9190612157565b6104a0565b60405161018091906129c9565b60405180910390f35b6101a3600480360381019061019e919061204a565b610534565b005b6101ad6105d0565b6040516101ba9190612bcb565b60405180910390f35b6101dd60048036038101906101d89190611e84565b6105d5565b005b6101f960048036038101906101f49190612099565b610676565b6040516102069190612955565b60405180910390f35b610217610827565b005b6102216108af565b60405161022e9190612878565b60405180910390f35b610251600480360381019061024c9190611fd2565b6108d9565b005b61025b610a5a565b6040516102689190612bcb565b60405180910390f35b61028b60048036038101906102869190611e48565b610a5f565b60405161029891906129ae565b60405180910390f35b6102bb60048036038101906102b69190611f43565b610af3565b005b6102d760048036038101906102d29190611e1f565b610b94565b005b6102f360048036038101906102ee919061204a565b610c8c565b005b60008073ffffffffffffffffffffffffffffffffffffffff168373ffffffffffffffffffffffffffffffffffffffff161415610366576040517f08c379a000000000000000000000000000000000000000000000000000000000815260040161035d90612a2b565b60405180910390fd5b60008083815260200190815260200160002060008473ffffffffffffffffffffffffffffffffffffffff1673ffffffffffffffffffffffffffffffffffffffff16815260200190815260200160002054905092915050565b60007fd9b67a26000000000000000000000000000000000000000000000000000000007bffffffffffffffffffffffffffffffffffffffffffffffffffffffff1916827bffffffffffffffffffffffffffffffffffffffffffffffffffffffff1916148061048957507f0e89341c000000000000000000000000000000000000000000000000000000007bffffffffffffffffffffffffffffffffffffffffffffffffffffffff1916827bffffffffffffffffffffffffffffffffffffffffffffffffffffffff1916145b80610499575061049882610ce7565b5b9050919050565b6060600280546104af90612e45565b80601f01602080910402602001604051908101604052809291908181526020018280546104db90612e45565b80156105285780601f106104fd57610100808354040283529160200191610528565b820191906000526020600020905b81548152906001019060200180831161050b57829003601f168201915b50505050509050919050565b61053c610d51565b73ffffffffffffffffffffffffffffffffffffffff1661055a6108af565b73ffffffffffffffffffffffffffffffffffffffff16146105b0576040517f08c379a00000000000000000000000000000000000000000000000000000000081526004016105a790612b2b565b60405180910390fd5b6105cb83838360405180602001604052806000815250610d59565b505050565b600181565b6105dd610d51565b73ffffffffffffffffffffffffffffffffffffffff168573ffffffffffffffffffffffffffffffffffffffff16148061062357506106228561061d610d51565b610a5f565b5b610662576040517f08c379a000000000000000000000000000000000000000000000000000000000815260040161065990612acb565b60405180910390fd5b61066f8585858585610eef565b5050505050565b606081518351146106bc576040517f08c379a00000000000000000000000000000000000000000000000000000000081526004016106b390612b6b565b60405180910390fd5b6000835167ffffffffffffffff8111156106ff577f4e487b7100000000000000000000000000000000000000000000000000000000600052604160045260246000fd5b60405190808252806020026020018201604052801561072d5781602001602082028036833780820191505090505b50905060005b845181101561081c576107c6858281518110610778577f4e487b7100000000000000000000000000000000000000000000000000000000600052603260045260246000fd5b60200260200101518583815181106107b9577f4e487b7100000000000000000000000000000000000000000000000000000000600052603260045260246000fd5b60200260200101516102f5565b8282815181106107ff577f4e487b7100000000000000000000000000000000000000000000000000000000600052603260045260246000fd5b6020026020010181815250508061081590612e77565b9050610733565b508091505092915050565b61082f610d51565b73ffffffffffffffffffffffffffffffffffffffff1661084d6108af565b73ffffffffffffffffffffffffffffffffffffffff16146108a3576040517f08c379a000000000000000000000000000000000000000000000000000000000815260040161089a90612b2b565b60405180910390fd5b6108ad600061124f565b565b6000600360009054906101000a900473ffffffffffffffffffffffffffffffffffffffff16905090565b8173ffffffffffffffffffffffffffffffffffffffff166108f8610d51565b73ffffffffffffffffffffffffffffffffffffffff16141561094f576040517f08c379a000000000000000000000000000000000000000000000000000000000815260040161094690612b4b565b60405180910390fd5b806001600061095c610d51565b73ffffffffffffffffffffffffffffffffffffffff1673ffffffffffffffffffffffffffffffffffffffff16815260200190815260200160002060008473ffffffffffffffffffffffffffffffffffffffff1673ffffffffffffffffffffffffffffffffffffffff16815260200190815260200160002060006101000a81548160ff0219169083151502179055508173ffffffffffffffffffffffffffffffffffffffff16610a09610d51565b73ffffffffffffffffffffffffffffffffffffffff167f17307eab39ab6107e8899845ad3d59bd9653f200f220920489ca2b5937696c3183604051610a4e91906129ae565b60405180910390a35050565b600081565b6000600160008473ffffffffffffffffffffffffffffffffffffffff1673ffffffffffffffffffffffffffffffffffffffff16815260200190815260200160002060008373ffffffffffffffffffffffffffffffffffffffff1673ffffffffffffffffffffffffffffffffffffffff16815260200190815260200160002060009054906101000a900460ff16905092915050565b610afb610d51565b73ffffffffffffffffffffffffffffffffffffffff168573ffffffffffffffffffffffffffffffffffffffff161480610b415750610b4085610b3b610d51565b610a5f565b5b610b80576040517f08c379a0000000000000000000000000000000000000000000000000000000008152600401610b7790612a8b565b60405180910390fd5b610b8d8585858585611315565b5050505050565b610b9c610d51565b73ffffffffffffffffffffffffffffffffffffffff16610bba6108af565b73ffffffffffffffffffffffffffffffffffffffff1614610c10576040517f08c379a0000000000000000000000000000000000000000000000000000000008152600401610c0790612b2b565b60405180910390fd5b600073ffffffffffffffffffffffffffffffffffffffff168173ffffffffffffffffffffffffffffffffffffffff161415610c80576040517f08c379a0000000000000000000000000000000000000000000000000000000008152600401610c7790612a4b565b60405180910390fd5b610c898161124f565b50565b8273ffffffffffffffffffffffffffffffffffffffff163373ffffffffffffffffffffffffffffffffffffffff1614610cc457600080fd5b610ccf838383611597565b505050565b600080823b905060008111915050919050565b60007f01ffc9a7000000000000000000000000000000000000000000000000000000007bffffffffffffffffffffffffffffffffffffffffffffffffffffffff1916827bffffffffffffffffffffffffffffffffffffffffffffffffffffffff1916149050919050565b600033905090565b600073ffffffffffffffffffffffffffffffffffffffff168473ffffffffffffffffffffffffffffffffffffffff161415610dc9576040517f08c379a0000000000000000000000000000000000000000000000000000000008152600401610dc090612bab565b60405180910390fd5b6000610dd3610d51565b9050610df481600087610de5886117b4565b610dee886117b4565b8761187a565b8260008086815260200190815260200160002060008773ffffffffffffffffffffffffffffffffffffffff1673ffffffffffffffffffffffffffffffffffffffff1681526020019081526020016000206000828254610e539190612d39565b925050819055508473ffffffffffffffffffffffffffffffffffffffff16600073ffffffffffffffffffffffffffffffffffffffff168273ffffffffffffffffffffffffffffffffffffffff167fc3d58168c5ae7397731d063d5bbf3d657854427343f4c083240f7aacaa2d0f628787604051610ed1929190612be6565b60405180910390a4610ee881600087878787611882565b5050505050565b8151835114610f33576040517f08c379a0000000000000000000000000000000000000000000000000000000008152600401610f2a90612b8b565b60405180910390fd5b600073ffffffffffffffffffffffffffffffffffffffff168473ffffffffffffffffffffffffffffffffffffffff161415610fa3576040517f08c379a0000000000000000000000000000000000000000000000000000000008152600401610f9a90612aab565b60405180910390fd5b6000610fad610d51565b9050610fbd81878787878761187a565b60005b84518110156111ba576000858281518110611004577f4e487b7100000000000000000000000000000000000000000000000000000000600052603260045260246000fd5b602002602001015190506000858381518110611049577f4e487b7100000000000000000000000000000000000000000000000000000000600052603260045260246000fd5b60200260200101519050600080600084815260200190815260200160002060008b73ffffffffffffffffffffffffffffffffffffffff1673ffffffffffffffffffffffffffffffffffffffff168152602001908152602001600020549050818110156110ea576040517f08c379a00000000000000000000000000000000000000000000000000000000081526004016110e190612b0b565b60405180910390fd5b81810360008085815260200190815260200160002060008c73ffffffffffffffffffffffffffffffffffffffff1673ffffffffffffffffffffffffffffffffffffffff168152602001908152602001600020819055508160008085815260200190815260200160002060008b73ffffffffffffffffffffffffffffffffffffffff1673ffffffffffffffffffffffffffffffffffffffff168152602001908152602001600020600082825461119f9190612d39565b92505081905550505050806111b390612e77565b9050610fc0565b508473ffffffffffffffffffffffffffffffffffffffff168673ffffffffffffffffffffffffffffffffffffffff168273ffffffffffffffffffffffffffffffffffffffff167f4a39dc06d4c0dbc64b70af90fd698a233a518aa5d07e595d983b8c0526c8f7fb8787604051611231929190612977565b60405180910390a4611247818787878787611a52565b505050505050565b6000600360009054906101000a900473ffffffffffffffffffffffffffffffffffffffff16905081600360006101000a81548173ffffffffffffffffffffffffffffffffffffffff021916908373ffffffffffffffffffffffffffffffffffffffff1602179055508173ffffffffffffffffffffffffffffffffffffffff168173ffffffffffffffffffffffffffffffffffffffff167f8be0079c531659141344cd1fd0a4f28419497f9722a3daafe3b4186f6b6457e060405160405180910390a35050565b600073ffffffffffffffffffffffffffffffffffffffff168473ffffffffffffffffffffffffffffffffffffffff161415611385576040517f08c379a000000000000000000000000000000000000000000000000000000000815260040161137c90612aab565b60405180910390fd5b600061138f610d51565b90506113af8187876113a0886117b4565b6113a9886117b4565b8761187a565b600080600086815260200190815260200160002060008873ffffffffffffffffffffffffffffffffffffffff1673ffffffffffffffffffffffffffffffffffffffff16815260200190815260200160002054905083811015611446576040517f08c379a000000000000000000000000000000000000000000000000000000000815260040161143d90612b0b565b60405180910390fd5b83810360008087815260200190815260200160002060008973ffffffffffffffffffffffffffffffffffffffff1673ffffffffffffffffffffffffffffffffffffffff168152602001908152602001600020819055508360008087815260200190815260200160002060008873ffffffffffffffffffffffffffffffffffffffff1673ffffffffffffffffffffffffffffffffffffffff16815260200190815260200160002060008282546114fb9190612d39565b925050819055508573ffffffffffffffffffffffffffffffffffffffff168773ffffffffffffffffffffffffffffffffffffffff168373ffffffffffffffffffffffffffffffffffffffff167fc3d58168c5ae7397731d063d5bbf3d657854427343f4c083240f7aacaa2d0f628888604051611578929190612be6565b60405180910390a461158e828888888888611882565b50505050505050565b600073ffffffffffffffffffffffffffffffffffffffff168373ffffffffffffffffffffffffffffffffffffffff161415611607576040517f08c379a00000000000000000000000000000000000000000000000000000000081526004016115fe90612aeb565b60405180910390fd5b6000611611610d51565b905061164181856000611623876117b4565b61162c876117b4565b6040518060200160405280600081525061187a565b600080600085815260200190815260200160002060008673ffffffffffffffffffffffffffffffffffffffff1673ffffffffffffffffffffffffffffffffffffffff168152602001908152602001600020549050828110156116d8576040517f08c379a00000000000000000000000000000000000000000000000000000000081526004016116cf90612a6b565b60405180910390fd5b82810360008086815260200190815260200160002060008773ffffffffffffffffffffffffffffffffffffffff1673ffffffffffffffffffffffffffffffffffffffff16815260200190815260200160002081905550600073ffffffffffffffffffffffffffffffffffffffff168573ffffffffffffffffffffffffffffffffffffffff168373ffffffffffffffffffffffffffffffffffffffff167fc3d58168c5ae7397731d063d5bbf3d657854427343f4c083240f7aacaa2d0f6287876040516117a5929190612be6565b60405180910390a45050505050565b60606000600167ffffffffffffffff8111156117f9577f4e487b7100000000000000000000000000000000000000000000000000000000600052604160045260246000fd5b6040519080825280602002602001820160405280156118275781602001602082028036833780820191505090505b5090508281600081518110611865577f4e487b7100000000000000000000000000000000000000000000000000000000600052603260045260246000fd5b60200260200101818152505080915050919050565b505050505050565b6118a18473ffffffffffffffffffffffffffffffffffffffff16610cd4565b15611a4a578373ffffffffffffffffffffffffffffffffffffffff1663f23a6e6187878686866040518663ffffffff1660e01b81526004016118e79594939291906128fb565b602060405180830381600087803b15801561190157600080fd5b505af192505050801561193257506040513d601f19601f8201168201806040525081019061192f919061212e565b60015b6119c15761193e612f6b565b806119495750611986565b806040517f08c379a000000000000000000000000000000000000000000000000000000000815260040161197d91906129c9565b60405180910390fd5b6040517f08c379a00000000000000000000000000000000000000000000000000000000081526004016119b8906129eb565b60405180910390fd5b63f23a6e6160e01b7bffffffffffffffffffffffffffffffffffffffffffffffffffffffff1916817bffffffffffffffffffffffffffffffffffffffffffffffffffffffff191614611a48576040517f08c379a0000000000000000000000000000000000000000000000000000000008152600401611a3f90612a0b565b60405180910390fd5b505b505050505050565b611a718473ffffffffffffffffffffffffffffffffffffffff16610cd4565b15611c1a578373ffffffffffffffffffffffffffffffffffffffff1663bc197c8187878686866040518663ffffffff1660e01b8152600401611ab7959493929190612893565b602060405180830381600087803b158015611ad157600080fd5b505af1925050508015611b0257506040513d601f19601f82011682018060405250810190611aff919061212e565b60015b611b9157611b0e612f6b565b80611b195750611b56565b806040517f08c379a0000000000000000000000000000000000000000000000000000000008152600401611b4d91906129c9565b60405180910390fd5b6040517f08c379a0000000000000000000000000000000000000000000000000000000008152600401611b88906129eb565b60405180910390fd5b63bc197c8160e01b7bffffffffffffffffffffffffffffffffffffffffffffffffffffffff1916817bffffffffffffffffffffffffffffffffffffffffffffffffffffffff191614611c18576040517f08c379a0000000000000000000000000000000000000000000000000000000008152600401611c0f90612a0b565b60405180910390fd5b505b505050505050565b6000611c35611c3084612c40565b612c0f565b90508083825260208201905082856020860282011115611c5457600080fd5b60005b85811015611c845781611c6a8882611d38565b845260208401935060208301925050600181019050611c57565b5050509392505050565b6000611ca1611c9c84612c6c565b612c0f565b90508083825260208201905082856020860282011115611cc057600080fd5b60005b85811015611cf05781611cd68882611e0a565b845260208401935060208301925050600181019050611cc3565b5050509392505050565b6000611d0d611d0884612c98565b612c0f565b905082815260208101848484011115611d2557600080fd5b611d30848285612e03565b509392505050565b600081359050611d4781613021565b92915050565b600082601f830112611d5e57600080fd5b8135611d6e848260208601611c22565b91505092915050565b600082601f830112611d8857600080fd5b8135611d98848260208601611c8e565b91505092915050565b600081359050611db081613038565b92915050565b600081359050611dc58161304f565b92915050565b600081519050611dda8161304f565b92915050565b600082601f830112611df157600080fd5b8135611e01848260208601611cfa565b91505092915050565b600081359050611e1981613066565b92915050565b600060208284031215611e3157600080fd5b6000611e3f84828501611d38565b91505092915050565b60008060408385031215611e5b57600080fd5b6000611e6985828601611d38565b9250506020611e7a85828601611d38565b9150509250929050565b600080600080600060a08688031215611e9c57600080fd5b6000611eaa88828901611d38565b9550506020611ebb88828901611d38565b945050604086013567ffffffffffffffff811115611ed857600080fd5b611ee488828901611d77565b935050606086013567ffffffffffffffff811115611f0157600080fd5b611f0d88828901611d77565b925050608086013567ffffffffffffffff811115611f2a57600080fd5b611f3688828901611de0565b9150509295509295909350565b600080600080600060a08688031215611f5b57600080fd5b6000611f6988828901611d38565b9550506020611f7a88828901611d38565b9450506040611f8b88828901611e0a565b9350506060611f9c88828901611e0a565b925050608086013567ffffffffffffffff811115611fb957600080fd5b611fc588828901611de0565b9150509295509295909350565b60008060408385031215611fe557600080fd5b6000611ff385828601611d38565b925050602061200485828601611da1565b9150509250929050565b6000806040838503121561202157600080fd5b600061202f85828601611d38565b925050602061204085828601611e0a565b9150509250929050565b60008060006060848603121561205f57600080fd5b600061206d86828701611d38565b935050602061207e86828701611e0a565b925050604061208f86828701611e0a565b9150509250925092565b600080604083850312156120ac57600080fd5b600083013567ffffffffffffffff8111156120c657600080fd5b6120d285828601611d4d565b925050602083013567ffffffffffffffff8111156120ef57600080fd5b6120fb85828601611d77565b9150509250929050565b60006020828403121561211757600080fd5b600061212584828501611db6565b91505092915050565b60006020828403121561214057600080fd5b600061214e84828501611dcb565b91505092915050565b60006020828403121561216957600080fd5b600061217784828501611e0a565b91505092915050565b600061218c838361285a565b60208301905092915050565b6121a181612d8f565b82525050565b60006121b282612cd8565b6121bc8185612d06565b93506121c783612cc8565b8060005b838110156121f85781516121df8882612180565b97506121ea83612cf9565b9250506001810190506121cb565b5085935050505092915050565b61220e81612da1565b82525050565b600061221f82612ce3565b6122298185612d17565b9350612239818560208601612e12565b61224281612f4d565b840191505092915050565b600061225882612cee565b6122628185612d28565b9350612272818560208601612e12565b61227b81612f4d565b840191505092915050565b6000612293603483612d28565b91507f455243313135353a207472616e7366657220746f206e6f6e204552433131353560008301527f526563656976657220696d706c656d656e7465720000000000000000000000006020830152604082019050919050565b60006122f9602883612d28565b91507f455243313135353a204552433131353552656365697665722072656a6563746560008301527f6420746f6b656e730000000000000000000000000000000000000000000000006020830152604082019050919050565b600061235f602b83612d28565b91507f455243313135353a2062616c616e636520717565727920666f7220746865207a60008301527f65726f20616464726573730000000000000000000000000000000000000000006020830152604082019050919050565b60006123c5602683612d28565b91507f4f776e61626c653a206e6577206f776e657220697320746865207a65726f206160008301527f64647265737300000000000000000000000000000000000000000000000000006020830152604082019050919050565b600061242b602483612d28565b91507f455243313135353a206275726e20616d6f756e7420657863656564732062616c60008301527f616e6365000000000000000000000000000000000000000000000000000000006020830152604082019050919050565b6000612491602983612d28565b91507f455243313135353a2063616c6c6572206973206e6f74206f776e6572206e6f7260008301527f20617070726f76656400000000000000000000000000000000000000000000006020830152604082019050919050565b60006124f7602583612d28565b91507f455243313135353a207472616e7366657220746f20746865207a65726f20616460008301527f64726573730000000000000000000000000000000000000000000000000000006020830152604082019050919050565b600061255d603283612d28565b91507f455243313135353a207472616e736665722063616c6c6572206973206e6f742060008301527f6f776e6572206e6f7220617070726f76656400000000000000000000000000006020830152604082019050919050565b60006125c3602383612d28565b91507f455243313135353a206275726e2066726f6d20746865207a65726f206164647260008301527f65737300000000000000000000000000000000000000000000000000000000006020830152604082019050919050565b6000612629602a83612d28565b91507f455243313135353a20696e73756666696369656e742062616c616e636520666f60008301527f72207472616e73666572000000000000000000000000000000000000000000006020830152604082019050919050565b600061268f602083612d28565b91507f4f776e61626c653a2063616c6c6572206973206e6f7420746865206f776e65726000830152602082019050919050565b60006126cf602983612d28565b91507f455243313135353a2073657474696e6720617070726f76616c2073746174757360008301527f20666f722073656c6600000000000000000000000000000000000000000000006020830152604082019050919050565b6000612735602983612d28565b91507f455243313135353a206163636f756e747320616e6420696473206c656e67746860008301527f206d69736d6174636800000000000000000000000000000000000000000000006020830152604082019050919050565b600061279b602883612d28565b91507f455243313135353a2069647320616e6420616d6f756e7473206c656e6774682060008301527f6d69736d617463680000000000000000000000000000000000000000000000006020830152604082019050919050565b6000612801602183612d28565b91507f455243313135353a206d696e7420746f20746865207a65726f2061646472657360008301527f73000000000000000000000000000000000000000000000000000000000000006020830152604082019050919050565b61286381612df9565b82525050565b61287281612df9565b82525050565b600060208201905061288d6000830184612198565b92915050565b600060a0820190506128a86000830188612198565b6128b56020830187612198565b81810360408301526128c781866121a7565b905081810360608301526128db81856121a7565b905081810360808301526128ef8184612214565b90509695505050505050565b600060a0820190506129106000830188612198565b61291d6020830187612198565b61292a6040830186612869565b6129376060830185612869565b81810360808301526129498184612214565b90509695505050505050565b6000602082019050818103600083015261296f81846121a7565b905092915050565b6000604082019050818103600083015261299181856121a7565b905081810360208301526129a581846121a7565b90509392505050565b60006020820190506129c36000830184612205565b92915050565b600060208201905081810360008301526129e3818461224d565b905092915050565b60006020820190508181036000830152612a0481612286565b9050919050565b60006020820190508181036000830152612a24816122ec565b9050919050565b60006020820190508181036000830152612a4481612352565b9050919050565b60006020820190508181036000830152612a64816123b8565b9050919050565b60006020820190508181036000830152612a848161241e565b9050919050565b60006020820190508181036000830152612aa481612484565b9050919050565b60006020820190508181036000830152612ac4816124ea565b9050919050565b60006020820190508181036000830152612ae481612550565b9050919050565b60006020820190508181036000830152612b04816125b6565b9050919050565b60006020820190508181036000830152612b248161261c565b9050919050565b60006020820190508181036000830152612b4481612682565b9050919050565b60006020820190508181036000830152612b64816126c2565b9050919050565b60006020820190508181036000830152612b8481612728565b9050919050565b60006020820190508181036000830152612ba48161278e565b9050919050565b60006020820190508181036000830152612bc4816127f4565b9050919050565b6000602082019050612be06000830184612869565b92915050565b6000604082019050612bfb6000830185612869565b612c086020830184612869565b9392505050565b6000604051905081810181811067ffffffffffffffff82111715612c3657612c35612f1e565b5b8060405250919050565b600067ffffffffffffffff821115612c5b57612c5a612f1e565b5b602082029050602081019050919050565b600067ffffffffffffffff821115612c8757612c86612f1e565b5b602082029050602081019050919050565b600067ffffffffffffffff821115612cb357612cb2612f1e565b5b601f19601f8301169050602081019050919050565b6000819050602082019050919050565b600081519050919050565b600081519050919050565b600081519050919050565b6000602082019050919050565b600082825260208201905092915050565b600082825260208201905092915050565b600082825260208201905092915050565b6000612d4482612df9565b9150612d4f83612df9565b9250827fffffffffffffffffffffffffffffffffffffffffffffffffffffffffffffffff03821115612d8457612d83612ec0565b5b828201905092915050565b6000612d9a82612dd9565b9050919050565b60008115159050919050565b60007fffffffff0000000000000000000000000000000000000000000000000000000082169050919050565b600073ffffffffffffffffffffffffffffffffffffffff82169050919050565b6000819050919050565b82818337600083830152505050565b60005b83811015612e30578082015181840152602081019050612e15565b83811115612e3f576000848401525b50505050565b60006002820490506001821680612e5d57607f821691505b60208210811415612e7157612e70612eef565b5b50919050565b6000612e8282612df9565b91507fffffffffffffffffffffffffffffffffffffffffffffffffffffffffffffffff821415612eb557612eb4612ec0565b5b600182019050919050565b7f4e487b7100000000000000000000000000000000000000000000000000000000600052601160045260246000fd5b7f4e487b7100000000000000000000000000000000000000000000000000000000600052602260045260246000fd5b7f4e487b7100000000000000000000000000000000000000000000000000000000600052604160045260246000fd5b6000601f19601f8301169050919050565b60008160e01c9050919050565b600060443d1015612f7b5761301e565b60046000803e612f8c600051612f5e565b6308c379a08114612f9d575061301e565b60405160043d036004823e80513d602482011167ffffffffffffffff82111715612fc95750505061301e565b808201805167ffffffffffffffff811115612fe857505050505061301e565b8060208301013d85018111156130035750505050505061301e565b61300c82612f4d565b60208401016040528296505050505050505b90565b61302a81612d8f565b811461303557600080fd5b50565b61304181612da1565b811461304c57600080fd5b50565b61305881612dad565b811461306357600080fd5b50565b61306f81612df9565b811461307a57600080fd5b5056fea264697066735822122058ea26714fe6a12590298ea1094c0ecffbfe090265a85641d9a5559efb5baf9564736f6c634300080000332068747470733a2f2f6672626b6d6d343932746f6e2e6269676d6f72616c69732e636f6d2f7b69647d2e6a736f6e",
  "immutableReferences": {},
  "source": "pragma solidity 0.8.0;\r\n// import ERC1155 token contract from openzapplin\r\n// We are not gonna implement all the functionalies of this contract,we implement the most important functionalies.\r\n// import \"https://github.com/OpenZeppelin/openzeppelin-contracts/blob/master/contracts/token/ERC1155/ERC1155.sol\";\r\nimport \"../node_modules/@openzeppelin/contracts/token/ERC1155/ERC1155.sol\";\r\n// D:\\NOTES\\Project4_ERC1155\\node_modules\\@openzeppelin\\contracts\\token\\ERC1155\r\n// import \"https://github.com/OpenZeppelin/openzeppelin-contracts/blob/master/contracts/access/Ownable.sol\";\r\nimport \"../node_modules/@openzeppelin/contracts/access/Ownable.sol\";\r\ncontract NFTCONTRACT is ERC1155,Ownable{\r\n    // First we are to defined the list of the items we want to have.\r\n    uint256 public constant ARTWORK=0;\r\n    uint256 public constant PHOTO=1;\r\n    // string private constant basuURI=\".json\";\r\n    //   function tokenURI(uint256 tokenId) public view virtual override returns (string memory) {\r\n    //     string memory baseExtension=\".json\";\r\n    //     string memory baseURI = _baseURI();\r\n    //     return bytes(baseURI).length > 0 ? string(abi.encodePacked(baseURI, tokenId.toString(),baseExtension)) : \"\";\r\n    // }\r\n    // These are gonna be used for internal use they are gonna be used for internal usage.\r\n    constructor() ERC1155(\" https://frbkmm492ton.bigmoralis.com/{id}.json\"){\r\n        _mint(msg.sender,ARTWORK,1,\"\");\r\n        _mint(msg.sender,PHOTO,2,\"\");\r\n    }\r\n    function mint( address account,uint256 id,uint256 amount) public onlyOwner() {\r\n// We need to make sure that only the can call this function.we can require statement or use onable contract from openzeppelin\r\n\r\n        _mint(account,id,amount,\"\");\r\n    }\r\n    function burn(address account, uint256 id,uint256 amount) public {\r\n        require(msg.sender==account);\r\n        _burn(account,id,amount);\r\n    }\r\n}",
  "sourcePath": "D:\\NOTES\\Project4_ERC1155\\contracts\\NFTCONTRACT.sol",
  "compiler": {
    "name": "solc",
    "version": "0.8.0+commit.c7dfd78e.Emscripten.clang"
  },
  "schemaVersion": "3.4.3",
  "updatedAt": "2021-10-27T04:25:39.077Z",
  "networkType": "ethereum",
  "devdoc": {
    "kind": "dev",
    "methods": {
      "balanceOf(address,uint256)": {
        "details": "See {IERC1155-balanceOf}. Requirements: - `account` cannot be the zero address."
      },
      "balanceOfBatch(address[],uint256[])": {
        "details": "See {IERC1155-balanceOfBatch}. Requirements: - `accounts` and `ids` must have the same length."
      },
      "isApprovedForAll(address,address)": {
        "details": "See {IERC1155-isApprovedForAll}."
      },
      "owner()": {
        "details": "Returns the address of the current owner."
      },
      "renounceOwnership()": {
        "details": "Leaves the contract without owner. It will not be possible to call `onlyOwner` functions anymore. Can only be called by the current owner. NOTE: Renouncing ownership will leave the contract without an owner, thereby removing any functionality that is only available to the owner."
      },
      "safeBatchTransferFrom(address,address,uint256[],uint256[],bytes)": {
        "details": "See {IERC1155-safeBatchTransferFrom}."
      },
      "safeTransferFrom(address,address,uint256,uint256,bytes)": {
        "details": "See {IERC1155-safeTransferFrom}."
      },
      "setApprovalForAll(address,bool)": {
        "details": "See {IERC1155-setApprovalForAll}."
      },
      "supportsInterface(bytes4)": {
        "details": "See {IERC165-supportsInterface}."
      },
      "transferOwnership(address)": {
        "details": "Transfers ownership of the contract to a new account (`newOwner`). Can only be called by the current owner."
      },
      "uri(uint256)": {
        "details": "See {IERC1155MetadataURI-uri}. This implementation returns the same URI for *all* token types. It relies on the token type ID substitution mechanism https://eips.ethereum.org/EIPS/eip-1155#metadata[defined in the EIP]. Clients calling this function must replace the `\\{id\\}` substring with the actual token type ID."
      }
    },
    "version": 1
  },
  "userdoc": {
    "kind": "user",
    "methods": {},
    "version": 1
  }
}